{
  "contractName": "FacultyVerifier",
  "abi": [
    {
      "inputs": [
        {
          "internalType": "contract FacultyRegistry",
          "name": "_facultyRegistry",
          "type": "address"
        }
      ],
      "stateMutability": "nonpayable",
      "type": "constructor"
    },
    {
      "inputs": [],
      "name": "facultyRegistry",
      "outputs": [
        {
          "internalType": "contract FacultyRegistry",
          "name": "",
          "type": "address"
        }
      ],
      "stateMutability": "view",
      "type": "function",
      "constant": true
    },
    {
      "inputs": [
        {
          "internalType": "address",
          "name": "_walletId",
          "type": "address"
        },
        {
          "internalType": "string",
          "name": "_password",
          "type": "string"
        }
      ],
      "name": "verifyPassword",
      "outputs": [
        {
          "internalType": "bool",
          "name": "",
          "type": "bool"
        }
      ],
      "stateMutability": "view",
      "type": "function",
      "constant": true
    }
  ],
  "bytecode": "0x608060405234801561001057600080fd5b5060405161074b38038061074b8339818101604052810190610032919061008d565b806000806101000a81548173ffffffffffffffffffffffffffffffffffffffff021916908373ffffffffffffffffffffffffffffffffffffffff16021790555050610111565b600081519050610087816100fa565b92915050565b60006020828403121561009f57600080fd5b60006100ad84828501610078565b91505092915050565b60006100c1826100da565b9050919050565b60006100d3826100b6565b9050919050565b600073ffffffffffffffffffffffffffffffffffffffff82169050919050565b610103816100c8565b811461010e57600080fd5b50565b61062b806101206000396000f3fe608060405234801561001057600080fd5b50600436106100365760003560e01c80636ab398c61461003b578063ac306d3614610059575b600080fd5b610043610089565b6040516100509190610458565b60405180910390f35b610073600480360381019061006e91906102f2565b6100ad565b604051610080919061043d565b60405180910390f35b60008054906101000a900473ffffffffffffffffffffffffffffffffffffffff1681565b60008060008060008054906101000a900473ffffffffffffffffffffffffffffffffffffffff1673ffffffffffffffffffffffffffffffffffffffff1663b5fdf252876040518263ffffffff1660e01b815260040161010c9190610422565b60006040518083038186803b15801561012457600080fd5b505afa158015610138573d6000803e3d6000fd5b505050506040513d6000823e3d601f19601f820116820180604052508101906101619190610346565b925092509250600073ffffffffffffffffffffffffffffffffffffffff168273ffffffffffffffffffffffffffffffffffffffff1614156101a857600093505050506101dd565b6000856040516020016101bb919061040b565b6040516020818303038152906040528051906020012090508181149450505050505b92915050565b60006101f66101f1846104a4565b610473565b90508281526020810184848401111561020e57600080fd5b610219848285610556565b509392505050565b600061023461022f846104a4565b610473565b90508281526020810184848401111561024c57600080fd5b610257848285610565565b509392505050565b60008135905061026e816105c7565b92915050565b600081519050610283816105c7565b92915050565b600081519050610298816105de565b92915050565b600082601f8301126102af57600080fd5b81356102bf8482602086016101e3565b91505092915050565b600082601f8301126102d957600080fd5b81516102e9848260208601610221565b91505092915050565b6000806040838503121561030557600080fd5b60006103138582860161025f565b925050602083013567ffffffffffffffff81111561033057600080fd5b61033c8582860161029e565b9150509250929050565b60008060006060848603121561035b57600080fd5b600084015167ffffffffffffffff81111561037557600080fd5b610381868287016102c8565b935050602061039286828701610274565b92505060406103a386828701610289565b9150509250925092565b6103b6816104ea565b82525050565b6103c5816104fc565b82525050565b6103d481610532565b82525050565b60006103e5826104d4565b6103ef81856104df565b93506103ff818560208601610565565b80840191505092915050565b600061041782846103da565b915081905092915050565b600060208201905061043760008301846103ad565b92915050565b600060208201905061045260008301846103bc565b92915050565b600060208201905061046d60008301846103cb565b92915050565b6000604051905081810181811067ffffffffffffffff8211171561049a57610499610598565b5b8060405250919050565b600067ffffffffffffffff8211156104bf576104be610598565b5b601f19601f8301169050602081019050919050565b600081519050919050565b600081905092915050565b60006104f582610512565b9050919050565b60008115159050919050565b6000819050919050565b600073ffffffffffffffffffffffffffffffffffffffff82169050919050565b600061053d82610544565b9050919050565b600061054f82610512565b9050919050565b82818337600083830152505050565b60005b83811015610583578082015181840152602081019050610568565b83811115610592576000848401525b50505050565b7f4e487b7100000000000000000000000000000000000000000000000000000000600052604160045260246000fd5b6105d0816104ea565b81146105db57600080fd5b50565b6105e781610508565b81146105f257600080fd5b5056fea26469706673582212204d5a433ff5e534f7ce3d425e097ea8f44d515ea36cfdfd068790527e2e7b3a5864736f6c63430008000033",
  "immutableReferences": {},
  "source": "// SPDX-License-Identifier: MIT\npragma solidity ^0.8.0;\n\nimport \"./FacultyRegistry.sol\";\n\ncontract FacultyVerifier {\n    FacultyRegistry public facultyRegistry;\n\n    constructor(FacultyRegistry _facultyRegistry) {\n        facultyRegistry = _facultyRegistry;\n    }\n\n    function verifyPassword(address _walletId, string memory _password) public view returns (bool) {\n        // Remove the unused local variable declaration and assignment\n        (string memory name, address walletId, bytes32 passwordHash) = facultyRegistry.faculties(_walletId);\n        // console.log();\n        if (walletId == address(0)) {\n            return false; // Faculty with given walletId not found\n        }\n\n        bytes32 hashedPassword = keccak256(abi.encodePacked(_password));\n        return hashedPassword == passwordHash;\n    }\n}\n",
  "sourcePath": "/Users/bharaths_mac/facultymana/FacultyVerifier.sol",
  "compiler": {
    "name": "solc",
    "version": "0.8.0+commit.c7dfd78e.Emscripten.clang"
  },
  "schemaVersion": "3.4.16",
  "updatedAt": "2024-04-11T02:58:00.562Z",
  "networkType": "ethereum",
  "devdoc": {
    "kind": "dev",
    "methods": {},
    "version": 1
  },
  "userdoc": {
    "kind": "user",
    "methods": {},
    "version": 1
  }
}