{
  "contractName": "FacultyRegistry",
  "abi": [
    {
      "inputs": [
        {
          "internalType": "address",
          "name": "",
          "type": "address"
        }
      ],
      "name": "faculties",
      "outputs": [
        {
          "internalType": "string",
          "name": "name",
          "type": "string"
        },
        {
          "internalType": "address",
          "name": "walletId",
          "type": "address"
        },
        {
          "internalType": "bytes32",
          "name": "passwordHash",
          "type": "bytes32"
        }
      ],
      "stateMutability": "view",
      "type": "function",
      "constant": true
    },
    {
      "inputs": [
        {
          "internalType": "string",
          "name": "_name",
          "type": "string"
        },
        {
          "internalType": "address",
          "name": "_walletId",
          "type": "address"
        },
        {
          "internalType": "bytes32",
          "name": "_passwordHash",
          "type": "bytes32"
        }
      ],
      "name": "registerFaculty",
      "outputs": [],
      "stateMutability": "nonpayable",
      "type": "function"
    }
  ],
  "bytecode": "0x608060405234801561001057600080fd5b506107ca806100206000396000f3fe608060405234801561001057600080fd5b50600436106100365760003560e01c8063ad45e7bf1461003b578063b5fdf25214610057575b600080fd5b6100556004803603810190610050919061046e565b610089565b005b610071600480360381019061006c9190610445565b61023e565b6040516100809392919061056c565b60405180910390f35b8173ffffffffffffffffffffffffffffffffffffffff166000808473ffffffffffffffffffffffffffffffffffffffff1673ffffffffffffffffffffffffffffffffffffffff16815260200190815260200160002060010160009054906101000a900473ffffffffffffffffffffffffffffffffffffffff1673ffffffffffffffffffffffffffffffffffffffff161415610159576040517f08c379a0000000000000000000000000000000000000000000000000000000008152600401610150906105aa565b60405180910390fd5b60405180606001604052808481526020018373ffffffffffffffffffffffffffffffffffffffff168152602001828152506000808473ffffffffffffffffffffffffffffffffffffffff1673ffffffffffffffffffffffffffffffffffffffff16815260200190815260200160002060008201518160000190805190602001906101e4929190610310565b5060208201518160010160006101000a81548173ffffffffffffffffffffffffffffffffffffffff021916908373ffffffffffffffffffffffffffffffffffffffff16021790555060408201518160020155905050505050565b6000602052806000526040600020600091509050806000018054610261906106c5565b80601f016020809104026020016040519081016040528092919081815260200182805461028d906106c5565b80156102da5780601f106102af576101008083540402835291602001916102da565b820191906000526020600020905b8154815290600101906020018083116102bd57829003601f168201915b5050505050908060010160009054906101000a900473ffffffffffffffffffffffffffffffffffffffff16908060020154905083565b82805461031c906106c5565b90600052602060002090601f01602090048101928261033e5760008555610385565b82601f1061035757805160ff1916838001178555610385565b82800160010185558215610385579182015b82811115610384578251825591602001919060010190610369565b5b5090506103929190610396565b5090565b5b808211156103af576000816000905550600101610397565b5090565b60006103c66103c1846105fb565b6105ca565b9050828152602081018484840111156103de57600080fd5b6103e9848285610683565b509392505050565b60008135905061040081610766565b92915050565b6000813590506104158161077d565b92915050565b600082601f83011261042c57600080fd5b813561043c8482602086016103b3565b91505092915050565b60006020828403121561045757600080fd5b6000610465848285016103f1565b91505092915050565b60008060006060848603121561048357600080fd5b600084013567ffffffffffffffff81111561049d57600080fd5b6104a98682870161041b565b93505060206104ba868287016103f1565b92505060406104cb86828701610406565b9150509250925092565b6104de81610647565b82525050565b6104ed81610659565b82525050565b60006104fe8261062b565b6105088185610636565b9350610518818560208601610692565b61052181610755565b840191505092915050565b6000610539601a83610636565b91507f466163756c747920616c726561647920726567697374657265640000000000006000830152602082019050919050565b6000606082019050818103600083015261058681866104f3565b905061059560208301856104d5565b6105a260408301846104e4565b949350505050565b600060208201905081810360008301526105c38161052c565b9050919050565b6000604051905081810181811067ffffffffffffffff821117156105f1576105f0610726565b5b8060405250919050565b600067ffffffffffffffff82111561061657610615610726565b5b601f19601f8301169050602081019050919050565b600081519050919050565b600082825260208201905092915050565b600061065282610663565b9050919050565b6000819050919050565b600073ffffffffffffffffffffffffffffffffffffffff82169050919050565b82818337600083830152505050565b60005b838110156106b0578082015181840152602081019050610695565b838111156106bf576000848401525b50505050565b600060028204905060018216806106dd57607f821691505b602082108114156106f1576106f06106f7565b5b50919050565b7f4e487b7100000000000000000000000000000000000000000000000000000000600052602260045260246000fd5b7f4e487b7100000000000000000000000000000000000000000000000000000000600052604160045260246000fd5b6000601f19601f8301169050919050565b61076f81610647565b811461077a57600080fd5b50565b61078681610659565b811461079157600080fd5b5056fea2646970667358221220e2f03bbc33049c8a2e365fb8176f14f1ee36769c86d32b985541136af92f036164736f6c63430008000033",
  "immutableReferences": {},
  "source": "// SPDX-License-Identifier: MIT\npragma solidity ^0.8.0;\n\ncontract FacultyRegistry {\n    struct Faculty {\n        string name;\n        address walletId;\n        bytes32 passwordHash;\n    }\n\n    mapping(address => Faculty) public faculties;\n\n    function registerFaculty(string memory _name, address _walletId, bytes32 _passwordHash) public {\n        require(faculties[_walletId].walletId != _walletId, \"Faculty already registered\");\n        \n        faculties[_walletId] = Faculty(_name, _walletId, _passwordHash);\n    }\n\n}\n",
  "sourcePath": "/Users/bharaths_mac/faculty_auth/FacultyRegistry.sol",
  "compiler": {
    "name": "solc",
    "version": "0.8.0+commit.c7dfd78e.Emscripten.clang"
  },
  "schemaVersion": "3.4.16",
  "updatedAt": "2024-04-10T08:28:26.502Z",
  "networkType": "ethereum",
  "devdoc": {
    "kind": "dev",
    "methods": {},
    "version": 1
  },
  "userdoc": {
    "kind": "user",
    "methods": {},
    "version": 1
  }
}